S0240000617474696E7932333133615F3773656778385F6932635F736C6176652E73726563E1
S11300001BC033C032C031C030C02FC02EC02DC081
S11300102CC02BC02AC029C028C077C126C0B9C0B3
S1130020D1C023C022C021C020C065C066C067C043
S113003068C069C06AC06BC011241FBECFEDCDBFBC
S113004010E0A0E6B0E0E2E7F3E002C005900D9214
S1130050A237B107D9F720E0A2E7B0E001C01D92B2
S1130060A937B207E1F774D182C1CACF80E886BD4F
S113007083E086BD8AB387608ABB87B38F6587BBFD
S113008081B38F6781BB8BB387608BBB88B38F6170
S113009088BB82B3807882BBC69882E080BF81E04F
S11300A083BF12BE99EE96BF1CBE89BF089580938C
S11300B07600C79AC59ABF9ABD9888EA8DB980EF31
S11300C08EB90895E82F262F2295269527706F71F3
S11300D082B3807882BBC6988BB387608BBB88B3AE
S11300E08F6188BB8E2F90E08730910590F4FC01DE
S11300F0EB5EFF4F0994C69A0DC0969A0BC0959A71
S113010009C0949A07C0939A05C0929A03C0919A21
S113011001C0909A9BB3822F809589238BBB88B3AF
S11301206095682368BB0895CF9380917800C0914F
S11301307500882311F08C2361F4E0916000F09144
S11301406100608180917400877021F48085682B40
S113015001C060E08C2F8770B5DFCF5FC09375005E
S1130160C77051F080916000909161000196909366
S11301706100809360000BC082E690E09093610080
S113018080936000809174008F5F80937400CF919E
S113019008951F920F920FB60F9211248F938EB170
S11301A010927700BD988072B79B02C08823E1F358
S11301B088EF8DB980EF8EB98F910F900FBE0F909D
S11301C01F9018951F920F920FB60F9211248F93C0
S11301D09F93EF93FF93809177008230D1F128F4BD
S11301E0882349F0813031F187C08430C1F1F8F0BF
S11301F08530D9F181C08FB1882331F08FB18695D4
S11302009091760089130BC0789B02C081E001C0F5
S113021084E0809377001FB8BD9A8EE703C088EA14
S11302208DB980E78EB981E08093730065C08FB18A
S113023081110CC080917300882341F010927300E7
S11302401FB882E080937700BD9A0DC088EA8DB90B
S11302500AC083E080937700BD981FB84BC085E047
S113026080937700BD9880E746C09FB1809173006A
S1130270882381F110927300892F8F70907F9031C1
S113028029F09032F1F0911130C02DC0823089F004
S113029030F4882359F0813041F588E00FC0843070
S11302A061F048F0853009F588EF08C010927800B5
S11302B01CC088E103C088E301C088E7809378000C
S11302C014C0882319F089B78E7F02C089B7816072
S11302D089BF0BC080917200E82FF0E0EE59FF4F08
S11302E090838F5F87708093720084E0809377009F
S11302F01FB8BD9A8EE78EB9FF91EF919F918F91B0
S11303000F900FBE0F901F9018951F920F920FB66B
S11303100F9211242F933F934F935F936F937F9387
S11303208F939F93AF93BF93EF93FF93FDDEFF9162
S1130330EF91BF91AF919F918F917F916F915F9159
S11303404F913F912F910F900FBE0F901F901895D2
S11303508DDE89E0ACDE85B78F7A85BF789485B76A
S1130360806285BF889585B78F7D85BFF8CFF89467
S1050370FFCFB9
S113037262003F065B4F666D7D870000000000004F
S1050382000075
S9030000FC
