S0240000617474696E7932333133615F3773656778385F6932635F736C6176652E73726563E1
S11300001BC033C032C031C030C02FC02EC02DC081
S11300102CC02BC02AC029C028C098C126C0BBC090
S1130020D3C023C022C021C020C065C066C067C041
S113003068C069C06AC06BC011241FBECFEDCDBFBC
S113004010E0A0E6B0E0E4EBF3E002C005900D920E
S1130050A237B107D9F720E0A2E7B0E001C01D92B2
S1130060A937B207E1F795D1A3C1CACF80E886BD0D
S113007083E086BD8AB387608ABB87B38F6587BBFD
S113008081B38F6781BB8BB387608BBB88B38F6170
S113009088BB82B3807882BBC69882E080BF81E04F
S11300A083BF12BE99EE96BF1CBE89BF089580938C
S11300B07600C79AC59ABF9ABD9888EA8DB980EF31
S11300C08EB90895E82F262F2295269527706F71F3
S11300D082B3807882BBC6988BB387608BBB88B3AE
S11300E08F6188BB8E2F90E08730910590F4FC01DE
S11300F0EB5EFF4F0994C69A0DC0969A0BC0959A71
S113010009C0949A07C0939A05C0929A03C0919A21
S113011001C0909A9BB3822F809589238BBB88B3AF
S11301206095682368BB0895CF93809178008823F5
S113013021F090917500892361F4E0916000F091C1
S11301406100608180917400877021F48085682B40
S113015001C060E0C09175008C2F8770B3DFCF5F62
S1130160C0937500C77051F0809160009091610058
S1130170019690936100809360000BC082E690E04A
S11301809093610080936000809174008F5F8093EE
S11301907400CF9108951F920F920FB60F921124FD
S11301A08F938EB110927700BD988072B79B02C076
S11301B08823E1F388EF8DB980EF8EB98F910F908A
S11301C00FBE0F901F9018951F920F920FB60F92AB
S11301D011248F939F93EF93FF9380917700823044
S11301E009F448C028F4882359F0813081F1A5C06E
S11301F0843009F447C018F1853009F44AC09DC021
S11302008FB1882331F08FB1869590917600891350
S11302100EC0789B04C081E08093770003C084E023
S1130220809377001FB8BD9A8EE78EB904C088EA20
S11302308DB980E78EB981E0809373007EC08FB161
S1130240882329F088EA8DB980E78EB976C0809139
S11302507300882351F0109273001FB882E08093DA
S11302607700BD9A80E78EB968C088EA8DB980E7C7
S11302708EB963C083E080937700BD981FB88EE782
S11302808EB95BC085E080937700BD9880E78EB916
S113029054C08FB1909173009923E9F110927300C7
S11302A0982F9F70807F803139F0803251F1811115
S11302B03DC0909372003AC0923099F028F499238B
S11302C049F0913051F032C0943099F070F095308B
S11302D0A1F02CC01092780029C088E080937800A7
S11302E025C088E18093780021C088E3809378005A
S11302F01DC088E78093780019C088EF8093780048
S113030015C0992321F089B78E7F89BF0FC089B7A3
S1130310816089BF0BC090917200E92FF0E0EE5923
S1130320FF4F80839F5F97709093720084E0809367
S113033077001FB8BD9A8EE78EB9FF91EF919F9118
S11303408F910F900FBE0F901F9018951F920F92D0
S11303500FB60F9211242F933F934F935F936F9394
S11303607F938F939F93AF93BF93EF93FF93DCDEC1
S1130370FF91EF91BF91AF919F918F917F916F9179
S11303805F914F913F912F910F900FBE0F901F904F
S113039018956CDE89E08BDE85B78F7A85BF7894FB
S11303A085B7806285BF889585B78F7D85BFF8CF77
S10703B0F894FFCFEB
S11303B462003F065B4F666D7D870000000000000D
S10503C4000033
S9030000FC
